:020000040800F2
:1000000000C00020A5030008F10D0008F50D000850
:10001000F90D0008FD0D0008010E00080B15000881
:100020000B1500080B1500080B1500080B15000830
:100030000B1500080B1500080B1500081D1500080E
:100040000B1500080B1500080B1500080B15000810
:100050000B1500080B150008450E0008650E00087A
:10006000850E0008A50E0008C50E00089D0C0008AE
:10007000B50C0008CD0C0008E90C0008050D0008BF
:10008000210D00083D0D0008A90A00080B15000805
:10009000952000080B1500080B150008E50E000858
:1000A00001180008251800084918000881180008E0
:1000B000D518000845190008B5190008FD110008F9
:1000C0001512000809120008211200080B1500087B
:1000D0000B150008011E0008511E0008A11E000893
:1000E000290F00080B1500080B150008DD1A000881
:1000F000011B0008251B00085D1B0008010B000800
:100100000B1500080B150008251A00080B15000830
:10011000F11E0008411F0008951A0008B91A0008CE
:10012000590D0008710D0008890D0008A50D000883
:1001300010B5054C237833B9044B13B10448AFF321
:1001400000800123237010BD40100020000000003B
:1001500090AA020808B5034B1BB103490348AFF34B
:10016000008008BD000000004410002090AA020892
:1001700010B512490A2309220968114800F0EAF96A
:1001800010490323022209680F4800F0E3F90F49E0
:100190001B231A2209680E4800F0DCF90D492B23B5
:1001A0002A2209680C4800F0D5F9BDE810400B4937
:1001B00032232C2209680A4800F0CCB984020020BE
:1001C0005C10002088020020741000208C020020A7
:1001D0008C1000207C020020A4100020800200204F
:1001E000BC10002010B5044600F0E0FC034B204694
:1001F000BDE81040197800F041BC00BF1600002097
:10020000F8B50446056801F0E5F9002223685B01B2
:1002100003F184431A6080232B600123AB622A61BF
:10022000EA606B61637973B1012B0FD001222368FF
:100230005B0103F18443C3F8802223685B0103F16F
:1002400084431A60F8BD4FF400436B644FF6FF72AD
:1002500000252368DA626E1CF7B23946204601F0A9
:10026000CEF9E8B148F6FF72236817F0010F03F1E9
:10027000340343F8252014BF6FF0FF026FF47F4270
:1002800023684FEA650503F1180353F8251001EAC6
:10029000020114BF68224FF4D0420A4343F82520DC
:1002A000042E3546D7D1C1E77047000038B5002588
:1002B000264A274C1368022043F01003136000F015
:1002C00055FE002001F016F865602368182023F41D
:1002D0000023236001F01AF8102001F017F800F055
:1002E00043F8A560102001F005F8102001F01CF87B
:1002F0000028FAD000F039F8164801F021F818204B
:1003000000F0F8FF182001F00FF80028FAD00220C2
:1003100000F0E0FF00214FF0006000F0B1FF0E4858
:1003200001F0F4F800F038F80C4B188800F026FCC7
:100330000B4800F027FC0B4801F026F900F02EF8DE
:1003400000F02DF8FFF7B0FF38BD00BF00200240DD
:10035000001002400C0000203F1901001400002092
:10036000E5010008010200087047002108B50846B1
:1003700001F026F84FF48061012001F021F80021FE
:10038000022001F01DF82D2001F02AF8BDE80840F8
:100390000021032001F014B800F0FCBD704700F00C
:1003A00038BE000001498D460149084700C00020C1
:1003B000B503000808B5114B1A68114B9A4213D1C6
:1003C000104B114A934213D323F024FC0022114610
:1003D000104602F0AFFD0D4B7BB123F0B7F952F898
:1003E000041B043343F8041C09498B42F7D3E7E7A5
:1003F0000022043343F8042CE3E7FEE7400303083C
:100400000000002040100020882E00204D370208F8
:100410004010002010B50D4B1A680AB90C4A1A603A
:100420001A680C49891A814204DB09494442511A6D
:10043000A14207DA23F084F90C234FF0FF32036066
:10044000104610BD10441860FAE700BFD410002019
:10045000882E0020C87C0328002070474FF40053EA
:1004600000204B607047012070474FF0FF3070470D
:100470000020704710B50C46FFF7FAFF20700120EE
:1004800010BD704770B515460C468E18B44201D1A8
:10049000284670BD14F8010BFFF7F3FFF6E7FEE7FF
:1004A000C38882889B1AC2888188914282BF028950
:1004B00001329B1898B2704710B50369044658681A
:1004C000FFF7EEFF88B123695B689A88196892B2DA
:1004D000885C99881A89C0B292B28A420FBF002202
:1004E0009A88013292B29A8010BD4FF0FF30FBE73C
:1004F00008B503695868FFF7D3FF08BD03695B6857
:100500009988DA8892B28A421FBF9A881B6892B291
:10051000985C14BFC0B24FF0FF3070470269916819
:100520008888CB889BB28342FAD1126813685B0635
:10053000FCD5704713B504698DF8071001220DF141
:100540000701204601F07FFB0028F7D0012002B010
:1005500010BD000030B54FF0000C4FF47A75C0E9C3
:1005600001C5034D016105600275437530BD00BFD3
:1005700000C002082DE9F74303690446DB6888469A
:100580008B42914625D3067D134D3601AB19477D2D
:10059000586818B10022597B01F0E8F8206901F091
:1005A00007FB39016A18127BAB19CDF804901B7B4D
:1005B000695800932069AB5901F0C1FB206942469C
:1005C000002101F0E2FB206903B0BDE8F04301F037
:1005D00015BB03B0BDE8F083C8BC02080022FFF7DA
:1005E000C9BF0000044B02791B789A4202BF034B3B
:1005F0001B681860704700BFF8100020FC10002036
:10060000002310B50446036072B6054B193119700A
:10061000044B1860044800F0B7FF62B6204610BDD6
:10062000F8100020FC100020E505000800220368F7
:100630001B685B0103F184431A6070470122036861
:100640001B685B0103F184431A607047036801393A
:100650001B6889B29962704703681A68D36A9BB2B3
:10066000994228BF19465162704738B561B90122D5
:1006700003681B68996203681B68DA6203681B6879
:10068000DC6AA4B2204638BD48224A434FF6FF71C7
:10069000B2FBF1F1013189B202EB5102B2FBF1F28E
:1006A00094B2FFF7D3FF036892B21B68DA62E9E7FE
:1006B000C9B2006800F0BCBF012203681B685B017F
:1006C00003F18443C3F880227047000008B501217C
:1006D0001048FFF795FF02210F48FFF791FF032114
:1006E0000E48FFF78DFF04210D48FFF789FF052114
:1006F0000C48FFF785FF06210B48FFF781FF072114
:100700000A48FFF77DFFBDE8084008210848FFF7C9
:1007100077BF00BFD8100020DC100020E0100020C0
:10072000E4100020E8100020EC100020F010002061
:10073000F4100020F8B506460C4615468F18A7425F
:1007400006D0336814F8011B1B6830469847F6E75B
:100750002846F8BD70B505460C46084649B124F058
:1007600015FB2B68024621462846BDE870409B6871
:10077000184770BD0368C9B21B68184703685B68F7
:10078000184738B50D210546FFF7F4FF0A21044646
:100790002846FFF7EFFF204438BD38B50546FFF780
:1007A000EDFF04462846FFF7ECFF204438BD2DE955
:1007B00070439046994690B058EA090306469DF862
:1007C000585007D13021FFF7D5FF0125284610B03A
:1007D000BDE870830024404649462A46002318F0AD
:1007E00069FC8046894601340DEB040303F8012CB3
:1007F00058EA0903EFD10025013C1DF804103046EA
:10080000092994BF3031373149B2FFF7B3FF0544AE
:10081000002CF1D1DAE72DE9F0411D46002A75F1EF
:10082000000307461446069E05DA2D21FFF7A2FFB6
:10083000644265EB4505F6B2069622462B463846DD
:10084000BDE8F041FFF7B3BF07B5CB1700920A46EA
:10085000FFF7E1FF03B05DF804FB38B50546FFF78D
:10086000F3FF04462846FFF78CFF204438BD07B548
:10087000CB1700920A46FFF7CEFF03B05DF804FBEA
:1008800037B5CB1700920A460546FFF7C4FF04466A
:100890002846FFF776FF204403B030BD07B5D2B23B
:1008A000009200230A46FFF782FF03B05DF804FBC5
:1008B00037B5D2B2009200230A460546FFF777FF0C
:1008C00004462846FFF75DFF204403B030BD00001A
:1008D0002DE9F34717461E4682460022002338467C
:1008E000314618F015F89DF828504FF00104F8B182
:1008F00043A3D3E900233846314617F0FFFF00B980
:100900000446E4B20022002338463146C4B117F051
:10091000E1FF18B12D215046FFF72CFF04463C495A
:100920005046FFF72BFF0444204602B0BDE8F08795
:1009300035A3D3E900233846314617F0D5FFDEE76B
:1009400017F0C8FF30B12D215046FFF713FF0446C2
:1009500006F100464FF0000800202E495FFA88F3A8
:100960009D4206D900222C4B17F06CFE08F10108BD
:10097000F4E73A46334617F085FB06460F4618F073
:10098000B1FB0A230246009380460B465046894637
:10099000FFF741FF0444002DC6D04046494617F0FA
:1009A000F9FC02460B463046394617F069FB06460D
:1009B0000F4650461949FFF7E1FE0444013DEDB2F0
:1009C000FF2DB1D0144B00223046394617F010FDF0
:1009D0000F46064617F0A6FF0A22014680465046FB
:1009E000FFF732FF0444404617F098FC02460B46DE
:1009F0003046394617F044FB06460F46DEE700BF97
:100A0000800350726C92DF43800350726C92DFC39C
:100A10001CC002080000E03F00002440BEDA0208CB
:100A20009DF800100091FFF753BF000030B5044659
:100A30000D4687B0064901A823F094FF22462B46B5
:100A400001A90A9823F08EFF0A9807B030BD00BFB5
:100A50002BC00208704710B50446007900F07EFCF8
:100A60002079BDE8104000F091BC026841F480118B
:100A7000936823F46023194391607047002330B5D5
:100A80001C461D4603EB4302072B01FA02F203F159
:100A90000103D8BF15430A2B44EA0204F2D10368CC
:100AA000DD6003681C6130BD70B5144C23681B68A1
:100AB0001D68A90707D51A6822F002021A60236888
:100AC0009B6803B198476A0709D523681A681368B9
:100AD00023F00403136023681B6903B19847EB07F5
:100AE0000BD523681A68136823F001031360236889
:100AF000DB6813B1BDE87040184770BD1C000020D2
:100B000070B5144C23681B681D68A90707D51A68BF
:100B100022F002021A6023689B6803B198476A07B3
:100B200009D523681A68136823F004031360236847
:100B30001B6903B19847EB070BD523681A68136844
:100B400023F0010313602368DB6813B1BDE8704034
:100B5000184770BD24000020012203685B0103F1E7
:100B6000844303F58673191F1A6018680028FCD1A6
:100B700043F8042C0B68002BFCD17047014604207D
:100B800000F01EBC10B50446054B1868A047054B85
:100B90001868A047044B18682346BDE81040184762
:100BA0001C000020200000202400002010B5044676
:100BB000FFF751FF20464FF46021FFF756FF012257
:100BC000236820465B0103F18443C3F85021236866
:100BD0005B0103F18443C3F80021BDE81040FFF737
:100BE000BBBF007900F0BABB142301395943006838
:100BF0000830435823F4405343EA023242507047CE
:100C0000036814200833013900FB01314A60704742
:100C100000EBC10340F8312093F90430002B08DBCE
:100C20000122591103F01F0302FA03F3014A42F8AB
:100C30002130704700E100E014220368013902FB13
:100C400001310123490101F18441C1F800317047AC
:100C500014220368013902FB01310023490101F12B
:100C60008441C1F8003170472DE9F04114251C463C
:100C700090464B1E5D430668FFF7EAFF9DF81C3067
:100C8000240244EA8324089B08361C43069B7719F8
:100C90007451FB60C7F80880BDE8F08110B5044BC3
:100CA0001C68A3681BB19847012223685A6010BDD5
:100CB0006000002010B5044B1C6823691BB19847E5
:100CC000102223685A6010BD6000002010B5054B4B
:100CD0001C68A36923B198474FF4807223685A6057
:100CE00010BD00BF6000002010B5054B1C68236AD2
:100CF00023B198474FF4805223685A6010BD00BF5B
:100D00006000002010B5054B1C68A36A23B198470A
:100D10004FF4803223685A6010BD00BF600000208D
:100D200010B5054B1C68236B23B198474FF4801214
:100D300023685A6010BD00BF6000002010B5054B4D
:100D40001C68A36B23B198474FF0807223685A60E8
:100D500010BD00BF6000002010B5044B1C68A368E4
:100D60001BB19847012223685A6010BD640000201F
:100D700010B5044B1C6823691BB1984710222368E7
:100D80005A6010BD6400002010B5054B1C68A369B3
:100D900023B198474FF4807223685A6010BD00BF9A
:100DA0006400002038B5104C636CD8070BD523685D
:100DB000D90408D50D4B1D682B6A23B198474FF411
:100DC00080522B685A60A36DDA070BD52368DB03CA
:100DD00008D5064B1C68A36A23B198474FF48032AC
:100DE00023685A6038BD00BF000402406400002040
:100DF000012007E0022005E0032003E0042001E0D9
:100E00000520FFE70D4A0121116072B60C4A00214E
:100E10001160074902B4084902B486B005498E46FC
:100E2000704700BFAFF30080AFF30080AFF30080E6
:100E300000000061F9FFFFFF012F000814ED00E042
:100E400010E000E008B5054A136833B150689847D0
:100E50000122034B5A6100BF00BF08BD00110020F2
:100E60000004014008B5054A936833B1D06898473B
:100E70000222034B5A6100BF00BF08BD00110020D1
:100E80000004014008B5054A136933B15069984719
:100E90000422034B5A6100BF00BF08BD00110020AF
:100EA0000004014008B5054A936933B1D0699847F9
:100EB0000822034B5A6100BF00BF08BD001100208B
:100EC0000004014008B5054A136A33B1506A9847D7
:100ED0001022034B5A6100BF00BF08BD0011002063
:100EE000000401402DE9F041002705240C4DD5F800
:100EF00014800126A64018EA060F08D0094BE1002D
:100F000053F834201AB10B445868904737430134E2
:100F10000A2CEED16F6100BF00BFBDE8F08100BFB9
:100F200000040140001100202DE9F04100270A24AF
:100F30000C4DD5F814800126A64018EA060F08D0FB
:100F4000094BE10053F834201AB10B44586890471C
:100F500037430134102CEED16F6100BF00BFBDE8F4
:100F6000F08100BF0004014000110020034A136813
:100F700023F0070318431060704700BF00200240B1
:100F800010B50446007900F0E9F92079BDE8104079
:100F900000F0FCB908B50748FFF7F2FF0648FFF775
:100FA000EFFF0648FFF7ECFFBDE808400448FFF7F5
:100FB000E7BF00BFD8000020E0000020E8000020CC
:100FC000F000002070B50F250368CE0801F007007F
:100FD000840053F82600092A05FA04F520EA0505DD
:100FE00014BF10460820A0402843082A43F82600D2
:100FF00007D10120DA6800FA01F122EA0101D96083
:1010000070BD092AFCD10122D86802FA01F101431E
:10101000F5E708B5032000F0A1F9BDE8084003207A
:1010200000F0B4B903681A6812F4985FFBD11A682B
:1010300042F480721A60704703681A6812F4985F6D
:10104000FBD11A6842F400721A600268136813F444
:10105000985FFBD17047000070B502684568516920
:1010600092695A4AAE781268CB07044606F0010628
:10107000C26014D50023EB8000F0D8F822685368D2
:1010800043F48063536026B12268136843F480639D
:10109000136000212B88226846EA4303136111F094
:1010A0000A0F10D0AB88002E45D0012B0AD1226840
:1010B0002046136823F480631360A38B012B37D978
:1010C000FFF7B0FF002101F08402802A03D1A38B37
:1010D000002B49D1002101F08402842A0DD1A18B7B
:1010E0002046002954D0FFF79DFF22685369D90795
:1010F000FCD5002163680C3363604B0661D523681F
:10110000AA681969EB88581CE880D154AB88EA8832
:10111000591E8A424BD122682046136823F480630B
:101120001360A38B022B3ED9BDE87040FFF77ABF56
:10113000FFF782FFC6E7012B08D9EB88A9685A1C84
:10114000EA802268CB5C13613146BCE7002BFBD1FF
:101150002046FFF771FF2268536823F40073536041
:10116000022384F82330ADE7EB88A9685A1CEA8093
:101170002268CB5C1361EA88AB889A42AAD12268C4
:10118000536823F480635360A38B013BA383A1E7DF
:10119000FFF752FF2268536823F400735360022361
:1011A00084F82330A9E7BDE87040FFF745BF9A42B5
:1011B00007D1A38B013B9BB2A3831BB9022384F805
:1011C000233070BD63680C336360FAE7202E002083
:1011D00008B50268536903F47063836000235361A8
:1011E00002689361FFF728FF0268536823F4E06305
:1011F0005360FF2380F8233008BD00000148FFF74B
:101200002BBF00BFF80000200148FFF725BF00BF3B
:101210001C0100200148FFF7DBBF00BFF8000020E1
:101220000148FFF7D5BF00BF1C01002010B50446E0
:10123000002190F9210000F00FF894F9220000211C
:10124000BDE8104000F008B84AF6AA22014B1A6027
:10125000704700BF003000400028A8BF00F1604088
:101260004FEA0111B8BF054BC9B2B5BF00F00F007E
:1012700000F56140195480F80013704714ED00E048
:1012800010B5002421F0604121F07F01064A01439E
:10129000916060B20F210134FFF7DEFF3C2CF8D1E2
:1012A000F02382F8233010BD00ED00E00449054B27
:1012B000CA6802F4E0621343CB60BFF34F8FFEE7CE
:1012C00000ED00E00400FA05014B13F81000704730
:1012D00050C00208064B5A6822F0030202435A60CB
:1012E00080005A6802F00C028242FAD1704700BFB7
:1012F00000100240030AC2B2012003F1804303F54B
:101300000433196890400843186070470121030AAC
:1013100003F1804303F504331A68C0B201FA00F008
:1013200022EA000018607047030A03F1804303F5C6
:1013300004331A680223C0B203FA00F01040704769
:10134000054A0168536823F474130B434168096824
:101350000B435360704700BF0010024010B50446B5
:10136000FFF7B2FF074B53F82020074800EB44007B
:10137000437803EBC20301229B0003F184431A600C
:1013800010BD00BF4001002050C0020810B5044647
:10139000FFF79AFF084B53F82020084800EB440061
:1013A000437803EBC20301229B0003F184431A60DC
:1013B00000221A6010BD00BF5801002050C0020872
:1013C00010B5054A054C536854F8200023EA000381
:1013D0000B43536010BD00BF001002403CC0020828
:1013E00010B50446FFF770FF074B53F8202007485D
:1013F00000EB4400437803EBC20300229B0003F19F
:1014000084431A6010BD00BF4C01002050C0020888
:1014100001EBC000800000F184400260704710B50D
:1014200004460079FFF79AFF2079BDE81040FFF7E6
:10143000ADBF012206210068FFF7EABF00220621A6
:101440000068FFF7E5BF10B50C46016803464A681F
:1014500022F0E0024A6002681268624012F4205FE3
:1014600001D0FFF7EBFF1A6818461460BDE8104082
:10147000FFF7DFBF134343F004031943FFF7E3BF54
:101480000122006811460430FFF7C2BF0068002245
:1014900001210430FFF7BCBF0068012200210430A5
:1014A000FFF7B6BF002203685B0103F18443C3F872
:1014B00080207047F8B51046069C9DF81C709DF87A
:1014C00020609DF8245081B10B2239462046FFF759
:1014D00079FD042231462046FFF774FD0B22294690
:1014E0002046BDE8F840FFF76DBD19460422FFF71E
:1014F00069FD042239462046FFF764FD0B22314680
:101500002046FFF75FFD0422E9E7FEE70722024BD2
:1015100058601A60704700BF10E000E0044A13688A
:1015200001331360034B1B6803B11847704700BFBA
:10153000202E00208011002011F0010F70B501F164
:10154000FF340DBF082500256FF0FF016FF47F41C8
:101550000068C4F34004183050F82460134331404D
:10156000AB400B4340F8243070BD02684B1E02F1C3
:10157000404220329B0003EBC20301229B0003F197
:1015800084431A607047000010B504460948A0471C
:101590000948A0470948A0470948A0470948A0476B
:1015A0000948A0470948A0472346BDE8104008481D
:1015B000184700BF84010020AC010020D0010020AA
:1015C000F4010020180200203C0200204802002004
:1015D0005402002010B504460079FFF7BFFE2079C1
:1015E000BDE81040FFF7D2BE002302681360026816
:1015F000D3604279012A9CBF026813627047037965
:101600001E2B10D9212B0ED0202B0ED9222B01D02E
:10161000252B04D102298CBF0020012070474B1ECE
:101620005842584170470120704700207047000021
:101630008B1C40F82320012342798B4010B5DB43FB
:10164000EAB1012A41F65F6218BF0122134001226C
:1016500004682361036803F140430C3301EBC303C7
:101660009B0003F184431A60427903793ABB07294E
:1016700015D8DFE801F007151515151A1A1F41F6E0
:10168000FF62E3E71A2B0CBF19232C23012259090F
:1016900003F01F0302FA03F3254A42F8213010BD7C
:1016A0001A2B0CBF1B232E23F0E71A2B0CBF1A2377
:1016B0002D23EBE71A2B0CBF18232B23E6E71B3B4C
:1016C0000C2BECD801A252F823F000BF2D17000814
:1016D0000117000805170008091700080D17000872
:1016E000111700089F1600081517000819170008A1
:1016F0001D170008211700082517000829170008E2
:101700001D23C3E71E23C1E73223BFE73623BDE70E
:101710003723BBE71823B9E71923B7E71A23B5E73F
:101720002B23B3E72C23B1E72D23AFE71C23ADE731
:1017300000E100E00022036803F140430C3301EBB9
:10174000C3039B0003F1844302311A6040F8212057
:10175000704738B504460D4613460022FFF7ECFEED
:1017600029462046BDE83840FFF7FFBE38B543792B
:101770000546022B0C4615D0042A13D8DFE802F0E8
:1017800003132A2D3A00FFF7D5FF0268631E02F10A
:10179000404220329B0003EBC20300229B0003F176
:1017A00084431A6038BD0022036803F140430C33C0
:1017B00001EBC3039B0003F184431A6008236022FA
:1017C00021462846FFF7B8FE21462846BDE83840A6
:1017D000FFF7CBBE00231022F2E74FF2F1120368AD
:1017E0009A61032203689A60036801225B0103F196
:1017F0008443D6E70122BDE83840FFF7AABF0000C6
:1018000010B5074A1468E36821690B401B0606D52A
:10181000536A23B19847236923F08003236110BDE5
:101820008401002010B5074A1468E36821690B4061
:10183000DB0706D5936823B19847236923F001039A
:10184000236110BD84010020F8B50C4D2F68FE689F
:101850003B691E4016F0400403D02C6A0CB1A0472F
:101860004024B30604D5EB6913B1984744F0200433
:101870003B6923EA04043C61F8BD00BF84010020F9
:10188000F8B5134D2F68FE683B691E4016F0100432
:1018900003D0AC690CB1A0471024310704D56B69A3
:1018A00013B1984744F00804720704D52B6913B1AB
:1018B000984744F00404B30704D5EB6813B1984784
:1018C00044F002043B6923EA04043C61F8BD00BF14
:1018D00084010020F8B51A4D2F68FE683B691E4050
:1018E00016F0400403D02C6A0CB1A0474024F30644
:1018F00004D5AB6913B1984744F01004300704D500
:101900006B6913B1984744F00804710704D52B693B
:1019100013B1984744F00404B20704D5EB6813B13F
:10192000984744F00204F30704D5AB6813B1984715
:1019300044F001043B6923EA04043C61F8BD00BFA4
:10194000AC010020F8B51A4D2F68FE683B691E40B7
:1019500016F0400403D02C6A0CB1A0474024F306D3
:1019600004D5AB6913B1984744F01004300704D58F
:101970006B6913B1984744F00804710704D52B69CB
:1019800013B1984744F00404B20704D5EB6813B1CF
:10199000984744F00204F30704D5AB6813B19847A5
:1019A00044F001043B6923EA04043C61F8BD00BF34
:1019B000D0010020F8B51A4D2F68FE683B691E4023
:1019C00016F0400403D02C6A0CB1A0474024F30663
:1019D00004D5AB6913B1984744F01004300704D51F
:1019E0006B6913B1984744F00804710704D52B695B
:1019F00013B1984744F00404B20704D5EB6813B15F
:101A0000984744F00204F30704D5AB6813B1984734
:101A100044F001043B6923EA04043C61F8BD00BFC3
:101A2000F4010020F8B51A4D2F68FE683B691E408E
:101A300016F0400403D02C6A0CB1A0474024F306F2
:101A400004D5AB6913B1984744F01004300704D5AE
:101A50006B6913B1984744F00804710704D52B69EA
:101A600013B1984744F00404B20704D5EB6813B1EE
:101A7000984744F00204F30704D5AB6813B19847C4
:101A800044F001043B6923EA04043C61F8BD00BF53
:101A90001802002010B5074A1468E36821690B405A
:101AA000DB0706D5936823B19847236923F0010328
:101AB000236110BD3C02002010B5074A1468E3689A
:101AC00021690B40DB0706D5936823B1984723694A
:101AD00023F00103236110BD4802002010B5074A1E
:101AE0001468E36821690B401B0606D5536A23B1CD
:101AF0009847236923F08003236110BD540200201E
:101B000010B5074A1468E36821690B40DB0706D566
:101B1000936823B19847236923F00103236110BD23
:101B200054020020F8B50C4D2F68FE683B691E403A
:101B300016F0400403D02C6A0CB1A0474024B30631
:101B400004D5EB6913B1984744F020043B6923EABC
:101B500004043C61F8BD00BF54020020F8B5134DE9
:101B60002F68FE683B691E4016F0100403D0AC6974
:101B70000CB1A0471024310704D56B6913B1984705
:101B800044F00804720704D52B6913B1984744F058
:101B90000404B30704D5EB6813B1984744F002047A
:101BA0003B6923EA04043C61F8BD00BF54020020F5
:101BB00000223F2110B50446436810309A80186017
:101BC000DA801981A3689A80DA8004F150021981C1
:101BD0001A6094F89000FFF7C1FB94F99130002B44
:101BE00008DB0122591103F01F0302FA03F3024A32
:101BF00042F8213010BD00BF00E100E00368DA6860
:101C000042F02C02DA60DA6842F40052DA6070477F
:101C100010B5036881688C88CA8892B2A242FAD152
:101C2000DA68910402D51A685206F9D5DA6822F406
:101C30000052DA60426893889BB2D38082689388AE
:101C40009BB2D38010BDF0B50B4606460468B5685C
:101C5000581AAF88ED88ADB2BD4204D125682D0673
:101C600001D5824210D8E36823F08003E3609042FC
:101C7000B3680DD39A88DB889BB293421EBFE3689A
:101C800043F08003E360F0BD13F8010B6060DEE712
:101C9000DD889F880135BD42ECD0DF881D89ADB25B
:101CA000BD4203D19D88ADB2002DE3D0DD8811F88F
:101CB00000C01F68ADB207F805C0DF881D8901307C
:101CC000ADB2BD420FBF0025DD880135ADB2DD806C
:101CD000CDE703468288016892B2885C99881A89A8
:101CE000C0B292B28A420FBF00229A88013292B2E9
:101CF0009A80704738B5C38882880133934204467E
:101D00000D4607D0C28803899BB2934214D18388C1
:101D10009BB28BB92046FFF7DCFFE38822689BB2B9
:101D2000D554E28823899BB293420FBF0023E388F6
:101D300001339BB2E38038BD4FF0FF30EDE770B563
:101D40001E460546084611460422059CFFF73AF94F
:101D50000B229DF810103046FFF734F92968630212
:101D6000CA6803F4F05322F4F0521204120C134325
:101D7000CB602A682402136904F4405423F44053CE
:101D80001B041B0C1C43146170BD38B5054614467A
:101D900011B900F0FDF8014619235943A200B1FB27
:101DA000F2F26421B2FBF1F001FB10231B0132338C
:101DB000B3FBF1F303F00F032C6843EA00139BB26B
:101DC000A36038BD10B50446084B1868A047084BFF
:101DD0001868A047074B1868A047074B1868A0472A
:101DE000064B18682346BDE81040184784020020BF
:101DF000880200208C0200207C020020800200204B
:101E000010B5104CE368980607D52368990604D5E9
:101E100061680D48C9B2FFF76DFFE3681A060BD57C
:101E200023681B0608D509488288C3889BB2934261
:101E300003D0FFF74EFF606010BDE36823F080031E
:101E4000E360F9E700380140B4110020C011002020
:101E500010B5104CE368980607D52368990604D599
:101E600061680D48C9B2FFF745FFE3681A060BD554
:101E700023681B0608D509488288C3889BB2934211
:101E800003D0FFF726FF606010BDE36823F08003F6
:101E9000E360F9E700440040CC110020D811002095
:101EA00010B5104CE368980607D52368990604D549
:101EB00061680D48C9B2FFF71DFFE3681A060BD52C
:101EC00023681B0608D509488288C3889BB29342C1
:101ED00003D0FFF7FEFE606010BDE36823F08003CF
:101EE000E360F9E700480040E4110020F011002011
:101EF00010B5104CE368980607D52368990604D5F9
:101F000061680D48C9B2FFF7F5FEE3681A060BD504
:101F100023681B0608D509488288C3889BB2934270
:101F200003D0FFF7D6FE606010BDE36823F08003A6
:101F3000E360F9E7004C004084110020901100207C
:101F400010B5104CE368980607D52368990604D5A8
:101F500061680D48C9B2FFF7CDFEE3681A060BD5DC
:101F600023681B0608D509488288C3889BB2934220
:101F700003D0FFF7AEFE606010BDE36823F080037E
:101F8000E360F9E7005000409C110020A8110020F8
:101F900008B590F89000FFF797F920B101280348A1
:101FA00018BF002008BD0248FCE700BF00A24A0499
:101FB0000051250230B548F28005094C226822F410
:101FC000804222F070022A4342402260236823F4B8
:101FD000E04323F040032B434B40236030BD00BF60
:101FE000005C0040284B072818BF18701A78052A93
:101FF00048D8DFE802F003131E232B364FF6FB719F
:10200000224A106C014011644FF43F4111640622D2
:102010001A701F4B1B685A7B1A7370474FF6FB717F
:102020001A4A106C014011644FF43F4111640422BC
:1020300002E002225A7003221A7006E05A78013A2E
:10204000D2B25A705A78002AF1D070470F490A6C00
:1020500092B242F010020A6405221A700A225A70E3
:1020600070475A78013AD2B25A705A78002AECD1A5
:102070004FF6EF720549086C02400A64044A126880
:10208000517B11730622D7E7242E0020005C00400C
:10209000740500202DE9F0415F4D604A2B68546CB7
:1020A0001B68A4B223405E0506D56FF480635364B9
:1020B0005B4B1B685B6898472A6813682340980449
:1020C00042BF6FF40051554B596413682340D90443
:1020D00006D56FF4C052514B00205A64FFF782FFBF
:1020E0002B681A68224012050FD54C490A6C92B22F
:1020F00042F0080042F00C0208640A641A7B5A732A
:1021000003221A736FF4C0524A641A68224097057A
:1021100042BF6FF40071414A51641B682340DE05E1
:1021200006D56FF480723D4B07205A64FFF75AFFC3
:102130002B681B681C40240403D5384C676C3B0497
:1021400001D4BDE8F0816FF4004317F00F0663641B
:1021500038D148F68003D4F8008018EA030FECD099
:102160001FFA88F32F4D304E03F440524FF40050C5
:1021700003F03003202133802A80FFF71BFFF8068D
:1021800023680ED423F4E14323F070031B041B0CDB
:10219000236000F09BFD31882888BDE8F041FFF7FF
:1021A00009BF18F0800FEDD123F070031B051B0D44
:1021B00018F4006F236002D000F0A6FBEBE700F0FC
:1021C00003FDE8E7B40004F1804404F5B84427684F
:1021D00039040DD5236823F070031B051B0D236004
:1021E0002A6806F180439268013B52F823309847F1
:1021F0003A06A2D5236806F1804623F4E14323F092
:1022000070031B041B0C23602B68013E5B6853F8B2
:102210002630984791E700BF74050020005C00401D
:102220002C2E0020262E0020282E0020800000F1D9
:10223000804000F5B840036823F4804323F0700326
:1022400043F4004343F080035940016070470000AD
:1022500018B90722024B1B681A820248704700BF58
:10226000342E0020E40500200022012110B5104B7F
:102270001B689A720F4B19640F490868026008685E
:1022800004681C644FF4E0545A64046008680468ED
:102290001C644FF43F445A64046008680068186482
:1022A0004FF48010054B18600B681A7310BD00BF07
:1022B000342E0020005C00407405002000E100E0A6
:1022C00013B5104B1A68137803F07F03212B16D136
:1022D000022808D0222801D0022405E093780A4A77
:1022E00003F0030313700024084B1B6823B102A9F9
:1022F00001F8010D02209847204602B010BD0224CB
:10230000FAE700BF342E002000120020FC1100204C
:1023100021B901288CBF022000207047022070479D
:10232000054B1B689B78032B04D8044901EBC301C0
:1023300000F0BCBA00207047342E0020CC050020ED
:10234000014900F0B3BA00BF88050020014900F040
:10235000ADBA00BF9005002037B5114C2268127845
:1023600002F07F02212A02D0022003B030BDA0F18A
:102370002003012B0B4B0C4D1B6888BF002523B19C
:1023800002A901F8010D02209847002DECD0236826
:1023900000249D615C822046A8472046E5E700BFF7
:1023A000342E0020FC110020512200082DE9F047B6
:1023B00000254FF0C00948F68F1648F280074FF00D
:1023C000400A434B434C1B68DFF838819D7283F809
:1023D0000990256523682846334043F40073236041
:1023E000236803EA08033B4383F010032360226D54
:1023F000394B520043F802A08022236D5B0003F1A9
:10240000804303F5C0431A60236823F4E24323F0BA
:1024100070031B041B0C2360304B1B6893F82C10BB
:1024200000F072F84FF440512846FFF7FFFEA36812
:102430002946334043F4C063A360226D284B520009
:1024400013444FF480721A60A268022002EA080264
:102450003A4382F02002A260FFF7E8FEE3685146AB
:102460003340E360226D1F4B520013444FF48872D7
:1024700003201A6000F048F84FF440510320FFF7A2
:10248000D5FE636829461E406660226D164B5200D9
:1024900043F802906368012003EA08033B4383F09A
:1024A00020036360FFF7C2FE0122104B28461B6821
:1024B0001A7300F0EBFBFF220D4B1D600D4B1D60EE
:1024C0000D4B1D600D4B1D600D4B1A70BDE8F08764
:1024D000342E0020005C0040086000402C2E0020BC
:1024E000206000403860004010600040740500200B
:1024F00004120020081200201012002014120020E4
:102500000C120020BF8FFFFF0D4B0E4A1B6D3E29A2
:1025100003EBC0004FEA400002440AD94B09C80649
:1025200004BF03F1FF339BB29B0243F400431360EB
:1025300070474B08C90748BF01339B02F7E700BF4C
:10254000005C00400C60004010B5064C18B9012238
:1025500023681A8210BD044B1B681B6898472068CB
:102560000A30F7E7342E0020302E002010B5064C3C
:1025700018B9012223681A8210BD044B1B689B689E
:10258000984720680C30F7E7342E0020302E0020CA
:1025900010B51E4B1C68002310B90223238210BD06
:1025A0001B4803802178024611F07F0112D1617A25
:1025B0008C0644BF02230370037848064CBF23F007
:1025C000010343F001031370124B1B681B6998470A
:1025D0000F48E4E70129E2D0022915D1217901F061
:1025E0000F039B0003F1804303F5B84309061B6802
:1025F00005D503F03003102BE6D10123E3E703F404
:102600004053B3F5805FF7E71846C8E7342E002043
:102610002A2E0020302E00202DE9F843234FDFF82A
:10262000A0803D682C8AD4B92E7A042E17D1204977
:102630000B78012B0ED11F4B1A681F4B92B213441B
:102640005B001C6030230C70A8F800303B681E72E1
:10265000BDE8F88310230726A8F80030F6E7AB8A18
:102660009C4294BF042602269C4228BF1C46AB69AC
:10267000204698478146002000F0B4FB22460146E0
:10268000484600F052FB2146002000F0C7FB2B8A91
:102690004FF440521B1B2B826B8A1C443023A8F83A
:1026A0000030064B6C821A80D0E700BF342E002029
:1026B00018120020505C004002300020262E00201E
:1026C000282E002010B50A4B0A491B6849789A78D1
:1026D00091420AD3D97841B99C8834B99A72064B91
:1026E0001B685B689847204610BD0220FCE700BFCE
:1026F000342E0020C8050020302E002038B50F4AA7
:102700000F4D12682B6892699978187990472B6859
:1027100004469A7A7AB170B95A7962B9DB7853B9BA
:10272000084B1B68DB6898472B681A79DA729A782D
:102730001A73204638BD0224FBE700BF2C2E002070
:10274000342E0020302E002038B52B4B1B68187813
:1027500010F07F0004D15A7A22F020025A7238BD5C
:10276000022847D15A88002AF9D15A79002AF6D18D
:102770001979224D21F08000840004F1804404F591
:10278000B844226849B22D780029B4BF02F0300263
:1027900002F4405285422DD962B39B7A53B300298B
:1027A000236811DA03F03003102B07D1C4B220469E
:1027B00000F004FB3021204600F0D8FA104B1B68D3
:1027C0005B6998470020CAE703F44053B3F5805F84
:1027D000F4D10C4D58B90C4B93F82C1000F02CFB95
:1027E00023682B409BB283F440532360E6E700F05C
:1027F000D2FAF5E70220B2E7342E0020C805002007
:10280000302E00208FBFFFFF9805002038B51B4BEE
:102810001B4D18682D78017921F08004A30003F185
:10282000804303F5B8431A6849B20029B4BF02F0E7
:10283000300202F44052A5421DD94488DCB9D2B11D
:10284000827AC2B11A680029B5BF22F4E04222F4AC
:10285000804222F0400222F07002B5BF92B292B2E2
:1028600082F0100282F480521A60064B1B689B694A
:102870009847002038BD0220FCE700BF342E00201E
:10288000C8050020302E002008B5064B1A68537A80
:1028900043F020035372044B1B68DB699847002008
:1028A00008BD00BF342E0020302E002010B5054B8F
:1028B0001C68628A18B98B889B1A238210BD08682D
:1028C0001044FBE7342E002008B50B4B002093F892
:1028D0002C1000F0B1FA094B1B68187A082806D1B1
:1028E0004FF48052064B1A801022064B1A80A0F13A
:1028F00009035842584108BD98050020342E002095
:10290000262E0020282E002073B5964C964E216866
:1029100032680B7A092B16D0944B92B213445B00A9
:102920001B885B0003F1804303F5C0431A780A70EB
:1029300059782268517099882268518019892268D3
:1029400091809B89D380012223681A72DA885D788E
:10295000002A64D11A7812F07F024DD1092D03D1DB
:10296000FFF7B0FE40BB16E0052D20D193F9022001
:10297000002A07DA08232268137202B0BDE870400B
:10298000FFF7A2BFDA78002AF4D19A88002AF1D1A1
:102990009B7A002BEED13268754B92B21344002221
:1029A0005B001A603022734B1A800623E3E7032D85
:1029B00014D19A78012A08D06F4B28461B685B69AE
:1029C0009847032828D10923D5E79A88002AF3D10C
:1029D0005B7A9A06F0D5FFF757FFC3E7012DEBD1DD
:1029E0009A78012AE8D19A88002AE5D15B7A9B0679
:1029F000E2D5FFF7A9FEB5E7012A04D10B2DDBD103
:102A0000FFF77CFEAEE7022AD6D1012DF1D0032DCF
:102A1000D2D1FFF7FBFEA5E70028ABD1BBE7062D1F
:102A200012D11A7855065AD1DB78534A012B126815
:102A300002D1D369DBB952E0022B01D1136AF9E765
:102A4000032B4CD1536AF5E7002D54D15988002946
:102A500045D15A6822F0FF02B2F5003F3FD11A7803
:102A600012F07F0216D19B88002B38D1434B0025F2
:102A70002268284655829361984728464FF6FF7191
:102A800023681A8A8A4233D0022801D0002A55D1FD
:102A900008222EE0012A0AD1374A18791268926971
:102AA0009047E0B923689B7A002BDFD117E0022A18
:102AB00015D11A7902F00F018B00100603F1804343
:102AC0002F4803F5B8431B6800784CBF03F0300370
:102AD00003F44053884202D912F0700FE4D0264B21
:102AE00022681B6850781B6998470328C6D1236861
:102AF00009221A7241E7082D04D11B785B06EED13A
:102B0000204BB4E70A2DEAD11A7802F07F02012A9D
:102B1000E5D19A7A002AE2D059880029DFD15A6893
:102B200022F0FF02B2F5803FD9D1134A187912681A
:102B3000926990470028D2D1134B98E793F900107F
:102B4000002936DAD9880C4C019101982468824218
:102B50001CD9019A1A8294F82C209A82FFF75CFD06
:102B60000BE700BF342E0020505C004004300020F2
:102B700002300020282E00202C2E00209125000855
:102B8000C8050020492500086D2500088A42E2D2C8
:102B900094F82C00824203D20021094A1170DAE72E
:102BA00092FBF0F100FB1122002AD4D1044A01214A
:102BB000F4E703221A724FF44052024B1A80DCE60B
:102BC00018120020262E0020F8B52A4E3468237AE9
:102BD000032B01D0052B44D1A369B3B1258AA5B13C
:102BE000A28A954228BF154628469847238A074659
:102BF0005B1B2382638A00202B44638200F000F970
:102C00002A460146384600F09FF8238A53B1002136
:102C10004FF44052184B08461A8000F0FFF830225B
:102C2000164B1A80228AA18A3368914209D803225E
:102C30001A7233681B7A32681372BDE8F840FFF7E6
:102C400043BE0AB10522F3E7062119720C4B19683D
:102C50000C4B89B20B445B001A603022074B1A8080
:102C6000E7E7072B03D1084B1B68DB68984708236D
:102C7000E1E700BF342E0020262E0020282E002061
:102C8000505C0040023000202C2E0020002210B5A5
:102C90000C4B1C78A24204D30B4B40F08000186010
:102CA00010BD02F1805303F5B8539B00196821F45D
:102CB000E04121F070010904090C1143196001324F
:102CC000E8E700BFC80500204C5C004010B5134C7D
:102CD00023681A7A022A01D0042A09D1FFF79CFC42
:102CE00023681B7A22681372BDE81040FFF7ECBD21
:102CF000062A10D15A78052A09D11A78520606D127
:102D00009878FFF7C3FF064B1B681B6A9847054B73
:102D10001B689B6898470823E4E700BF342E002017
:102D2000302E00202C2E0020704701F1005101327E
:102D300001F540515210490002B9704730F8023B8A
:102D4000013A21F8043BF7E7002310B501F10051E7
:102D5000013201F54051521049009A4200D110BD94
:102D600051F8234020F813400133F6E7800000F1CA
:102D7000804000F5B8400368CA0623F4E04323F01E
:102D800040039BB248BF83F010038A0648BF83F01C
:102D9000200303607047800000F1804000F5B840D8
:102DA00003685B0409D5036823F4E04323F0700350
:102DB0001B041B0C43F4804303607047800000F148
:102DC000804000F5B84003685B0609D5036823F42A
:102DD000E04323F070031B041B0C43F0400303602B
:102DE00070470000054B1B689BB203EBC00000F16D
:102DF000005000F54050400000887047505C004093
:102E0000044B1B689BB203EBC000034B03445B0005
:102E100018887047505C004004300020044B1B6849
:102E20009BB203EBC000034B03445B001960704787
:102E3000505C0040023000200D4B0E4A1B683E29BA
:102E40009BB203EBC00002444FEA42020AD94B098D
:102E5000C80604BF03F1FF339BB29B0243F4004357
:102E6000136070474B08C90748BF01339B02F7E75F
:102E7000505C00400630002013B504468DF8071062
:102E800001220DF107012046FEF7DDFE0028F7D0F4
:102E900002B010BD38B505464C1E14F9011F01B92A
:102EA00038BDC9B22846FFF7E7FFF6E708B5134B70
:102EB00003221C6801212046FEF784F8002301212B
:102EC0001A46B2F5007F0CD072B1B3F5007F01D184
:102ED00000230A449A420CD9022520680561013377
:102EE000EFE74FF0FF31F0E7B3F5007F4FF001015E
:102EF000EED020684FF40035F0E700BF38C002087C
:102F000008B5034B0BB100F047F862B6FFF7CEFFF0
:102F1000992F000808B5044B23B100F05DF8034970
:102F2000FFF7B8FFFFF7ECFFD92F000823C1020815
:102F3000FDF7BCB908B500F079FF01F03BF8FCE7FC
:102F400020F0A6BE20F0ACBE32280BD8064B03EB17
:102F5000001043681A68437B343203F18043013B1D
:102F600042F82310704700BFC8BC020838B50C46B1
:102F70000546072104EB042400F046F8A1B22846D8
:102F8000BDE83840FFF7E0BF002203685B0103F1B2
:102F90008443C3F8002170474FF0FF3310B50A4C4B
:102FA0000A48C4F88030C4F88430FEF7EDFA0848C7
:102FB000FDF7E8FD0748FEF705FF4FF40023236007
:102FC0004FF48013236010BD00E100E0E915000814
:102FD000892F0008111C000810B5094B094C18680E
:102FE0000B220221FDF7EEFF2068FEF7E1FD2068CD
:102FF0004FF416520021FEF7C8FE206810BD00BF36
:1030000034C0020888020020322838B53BD808298D
:1030100039D8DFE801F00529171A1D2017232600EB
:1030200000240322184B00011D18297B1858FDF7B6
:10303000C9FF686838B3697BCCB1BDE8384001226C
:10304000FEF794BB00240422ECE700242246E9E7C3
:1030500000240922E6E700240822E3E701240B22EA
:10306000E0E701240F22DDE700240722DAE7026807
:103070004B1E02F1404220329B0003EBC2039B0037
:1030800003F184431C6038BDC8BC020808B50121A7
:103090001048FDF7B5FA02210F48FDF7B1FA0321F8
:1030A0000E48FDF7ADFA04210D48FDF7A9FA0521F8
:1030B0000C48FDF7A5FA06210B48FDF7A1FA0721F8
:1030C0000A48FDF79DFABDE8084008210848FDF7C9
:1030D00097BA00BF1C1200202012002024120020EA
:1030E000281200202C120020301200203412002060
:1030F0003812002032280DD8074B000119181B5830
:10310000097B1B689A6801238B40134214BF01207E
:103110000020704700207047C8BC0208322810B554
:103120000ED8084B00011C181B58B1FA81F11A681F
:103130000123207B49098340090103FA01F1116150
:1031400010BD00BFC8BC02080A4A0B4B11689B683F
:1031500000BF00BF12688A42F6D14820C3F58C3305
:1031600003F5A073B3FBF0F34FF47A7000FB023069
:10317000704700BF202E002010E000E038B5044664
:10318000FFF7E2FF05465CB1FDF764FCFFF7DCFFEB
:10319000401BB0F57A7FF6D3013C05F57A75F5D181
:1031A00038BD28B10C234343013B18460138FDD8F4
:1031B000704700000449054BCA6822F4E06212041B
:1031C000120C1343CB60704700ED00E00003FA05DA
:1031D000704770470120704713B5104C204614F01B
:1031E0007EFE2046042114F014FE204602220C49E3
:1031F00014F012FE002302220A4900932046A02365
:1032000014F070FE204614F063FE204614F052FEC7
:10321000204602B0BDE8104014F053BE4412002016
:1032200048C102083E12002024280AD0252807D1D0
:103230000123054A32F81330044AC3F3890313808B
:1032400070470023F5E700BF3E1200203C1200202B
:10325000044B03EB00135B6813B1C0B2FFF786BEEB
:10326000704700BFC8BC0208FEF720B8024B0348F5
:10327000196814F0CCBD00BF1C00002044120020CF
:1032800010B5074C032294F84C10206CFDF79AFE01
:10329000236C94F84C101A6801238B40136110BD05
:1032A000C8BC0208062838B58CBF00250A4B0B4C59
:1032B00098BF1D5C2046E46600F03FF92946204691
:1032C00000F04DF92046012100F056F92046BDE8F6
:1032D0003840002100F05DB94AC1020854120020B4
:1032E000FF21014800F06AB9541200200B46024643
:1032F0000021014800F01ABA54120020014601488A
:1033000000F09CBA5412002070B50D46064C0146E0
:10331000204600F093FA29462046BDE8704001237C
:103320004FF4007200F07EBA5412002001398B0075
:103330000121026899405160704703689A689107BB
:10334000FCD59A681206FCD47047436823B1417BD0
:1033500000221846FEF70ABA70470000172806D068
:10336000182806D01628044818BF002070470348C4
:1033700070470348704700BF2C030308300303085D
:10338000340303082DE9F04F814687B000798A465F
:10339000FFF7E4FF60B30578174C46782D012B1931
:1033A0008778360190F8038006EB040B18460593E6
:1033B00004EB0717FFF7C9FF5846FFF7C6FF04EBFA
:1033C00008183846FFF7C1FF4046FFF7BEFF98F8E0
:1033D0000C20059B51461B7B03923A7B4846029288
:1033E0009BF80C200192325900922A59FEF762F89C
:1033F00007B0BDE8F08F00BFC8BC020810B50C468E
:10340000FDF762FF90B10228094B88BF002300221C
:103410005B089C42D0B205D20132072A4FEA53031F
:10342000F7D11046034B0344187B10BD024BEEE767
:1034300000A24A042C030308005125022DE9F041A3
:10344000034604466C302C4D00221D6001255A7342
:103450001D735A60C3E9072224339842F3D1242212
:103460004B1E02FB03430229E366DFF8AC80234EC8
:1034700039D003293CD0A94201D1214B1C60214BFA
:10348000214F1B68216823611879FFF7B7FF3B685C
:103490000225A36103236375D8F80030A06063633D
:1034A0002575616A1879FFF7A9FF3B68E062E3635D
:1034B000052384F83930042384F838303368A16C4C
:1034C000A3651879FFF79AFF104B00221B6820654F
:1034D0002366012384F85C30E36E84F85D50DA7370
:1034E0002046BDE8F081D8F800306363084BC5E79B
:1034F0003368A365074BC1E700093D006801002060
:10350000C412002060010020600000206400002040
:10351000C8120020CC12002064010020C06E037B82
:103520004268012B0CBF0023802342F440721343F6
:10353000017A427B0069FDF79DBF10B50446C36E5A
:103540001869FDF76CFFE36E01211869FFF71AFF98
:103550002046FFF7E3FF0122E36EDA7310BDC36E6E
:103560009960C36E01F038011B691A68136823F073
:103570003803194311607047C36E1973C36E1B691A
:103580001A68136823F0800309B943F080031360BD
:103590007047C36E5973C36E01F003011B691A684B
:1035A000136823F00303194311607047C36E1B694E
:1035B0001B68D960C36E1869FFF7BFBE10B5C36E34
:1035C0001C6923682046DA68D960FFF7B6FE2368D5
:1035D000D868C0B210BD0000F0B50546C36E85B016
:1035E000986917460E46FDF7FCFAE86E4468017DBF
:1035F000A4F500635C425C4103691A688223CDE94B
:103600000143009723460C328069FDF72DFBE86EDD
:103610000369417D1A68C6B91023CDE901430D4BFA
:10362000009323460C328069FDF71EFBEB6E0022EF
:10363000597D9869FDF7D8FA0322EB6E197D9869D8
:1036400005B0BDE8F040FDF7CFBA90230096CDE974
:103650000143E6E751C1020870B504460D4611B9B1
:103660000025284670BDC36E1A6912689168CE079E
:1036700048BFD2680422DA73C36E2A46197D98695E
:10368000FDF7BEFAE36E2A46597D9869FDF7B8FA50
:10369000E36E197D9869FDF7CFFAE36E597D98695D
:1036A000FDF7CAFAE36E1869FDF7F6FEE36E1869D6
:1036B000FDF7E6FEE26ED369002BD1D193691A497A
:1036C0001E68537D0D68013B9B00DBB23068D8401B
:1036D000800727D40868401B6428F7D902251069A1
:1036E000FFF72BFEE36E1869FDF7D0FEE36E186955
:1036F000FDF7D8FEE36E597D9869FDF7A9FAE36EF0
:10370000197D9869FDF7A4FAE36E197D9869FFF7B2
:103710000DFEE36E597D9869FFF708FE0122E36E06
:10372000DA739EE70025DAE7202E002038B504463C
:103730001D46FFF751FF29462046BDE83840FFF7F8
:103740008BBF7FB5054614460E46C36EE4019869EB
:10375000FDF747FAE86E44F012044368417DA3F593
:1037600000625342534102691268CDE90134009668
:103770000C328069FDF778FA0022EB6E597D98696A
:1037800004B0BDE87040FDF72FBA000070B50446E4
:103790000D4611B90025284670BDC36E597D986944
:1037A000FFF7C4FDE36E2A46597D9869FDF728FAB4
:1037B0000322E36EDA73E36E597D9869FDF73CFAF4
:1037C000E36E1869FDF75CFEE26E136A002BE1D12F
:1037D000936913491E68537D0D68013B9B00DBB262
:1037E0003068D840800719D40868401B6428F7D98E
:1037F00002251069FFF7A1FDE36E1869FDF746FE8B
:10380000E36E597D9869FDF723FAE36E597D986957
:10381000FFF78CFD0122E36EDA73BCE70025E8E7D1
:10382000202E002038B5044615461A46FFF789FFBA
:1038300029462046BDE83840FFF7A8BF08B5FFF786
:10384000B5FE012008BD000001210148FFF7F6BDCB
:1038500054120020084B186803F178420749A2F57A
:103860007C328850064A04339342F4D10022054B3F
:1038700001201A70704700BF00F00308D01200202A
:1038800000F80308D01A002070B5164D2C783CB310
:1038900014F0DEFB144814F093FB052805D014F057
:1038A000E3FB00232B70204670BD104814F088FB0A
:1038B0000528F4D10C4E0E4A06F17843A3F57C336B
:1038C000D15A304614F09EFB052804D0002414F091
:1038D000CBFB2C70E7E7054B02369E42EBD1DEE7CF
:1038E0000124E0E7D01A002000F0030800F80308E4
:1038F000D0120020F8B505460024944206D0094EA7
:103900000F5D2868264437540134F6E70120064A43
:103910001070A2B218460BF0EDF82B6800201C4482
:103920002C60F8BDD0120020D01A002070B51546CA
:103930009DF8102004465AB902680A491144AAB2F7
:1039400018460BF0D7F8226800202A44226070BD88
:103950000022AA42F3D0034E20681644305C8854FB
:103960000132F6E7D01200200228F8B506460D46CF
:1039700039D0052836D100262C4C0222236801219B
:103980005B0103F184431E602046FDF7EFFE2849EA
:103990004FF6FF70B1FBF5F11122814228BF0146BD
:1039A00023685E629A62D8629A69204622F0FF021A
:1039B0009A6159635B0103F184430121DE611D4A71
:1039C000FDF736FE01213220FDF746FC0122236877
:1039D0005B0103F18443C3F8802223685B0103F198
:1039E00084431A60F8BD0027134C02462368012166
:1039F0005B0103F184431F602046FDF7B7FE40F2F0
:103A0000E73223680D495F62B1FBF5F19A624FF628
:103A1000FF72914228BF1146DA6220465963084A74
:103A20000121FDF705FE31461C20CDE718020020DC
:103A300000093D005D320108AC0100204019010081
:103A40001144010802280CD005280CD1074B1B6833
:103A50005B0103F18443D3F88401003018BF0120D7
:103A60007047034BF3E70020704700BF18020020A7
:103A7000AC010020013807289ABF024B53F8200000
:103A80000020704754C10208FDF7DEBB7047704745
:103A90000368C9B21B6818470023054A9A56824238
:103AA00004D00133172BF8D1002070470120704754
:103AB00011C3020808B500F0CFFABDE8084001487C
:103AC00000F0B8BAF1C1020808B50DF037FF0DF0EB
:103AD00099FFFE200DF064F8BDE808400DF03EB8F7
:103AE000054BD3F8D02293F8DC124FF480331268E0
:103AF0008B401361704700BFC8BC02080E4AD2F861
:103B0000803092F88C101868012303FA01F109043F
:103B10000161D2F81011086892F81C1103FA01F142
:103B200009040161D2F8201292F82C22096893400E
:103B30001B040B61FFF7D4BFC8BC0208044BD3F8C9
:103B4000D02293F8DC12012312688B401361704776
:103B5000C8BC0208012130B4124BD3F88020106891
:103B600093F88C2001FA02F202610F48027822F0E9
:103B700001040470D3F81041256893F81C4101FA40
:103B800004F42C6122F003040470D3F8204293F86B
:103B90002C322468994022F007022161027030BC67
:103BA000FFF7CCBFC8BC02081B200020044B93F9D0
:103BB000000001281EBF034B1878C0F38000704737
:103BC0000C200020A82C0020094B93F90030022B78
:103BD0000CD0084B1B78C3F3C00040B1064AD07824
:103BE00028B1C3F3800080F00100704701207047C6
:103BF0000C200020A82C0020882C00200BF0CCBB2F
:103C000010B540F2E9330446013B08D000BF00BFC5
:103C100000BF42F62F22013A00BFFCD1F4E772B692
:103C200040F2E933013B08D000BF00BF00BF41F2C2
:103C30009312013A00BFFCD1F4E710F071F824B1FF
:103C4000FFF788FFFFF720FFFCE7FFF777FFF9E7B3
:103C50000D460446164608B510F062F800F0FCF96F
:103C6000074800F0E7F907490748002D18BF294623
:103C7000002C18BF20460AF079FD3046FFF7C0FF40
:103C800000C2020895C1020801C3020870B5374B93
:103C900005461B78032B01D803F048FB344B354A0B
:103CA0001B681468ABB1344909680B44E31A002B54
:103CB0000FDB00F0D1F9314B3148196800F0D2F92F
:103CC0000A213048FFF7E4FE002211461046FFF7B4
:103CD000BFFF2D4B1B6843B12C4908782C4909784C
:103CE00088420CD01268244B1A602A4D2B68E31AC4
:103CF000002B03DB64340DF0C5FD2C6070BD264A3B
:103D000085BB1D4909680B44E31A002B2ADB137895
:103D1000002BEAD101231370204AD2F880100868E2
:103D200092F88C1003FA01F101611D48017821F02D
:103D300001050570D2F810512E6892F81C5103FA53
:103D400005F5356121F003050570D2F8205292F88F
:103D50002C222D68934021F007012B610170FFF7A1
:103D6000EDFEC2E700231370BFE700BFF01C002088
:103D7000DC1A0020202E0020E41A0020F41A002073
:103D8000B4C102085C100020EC050020E1250020F1
:103D9000E2250020D41A0020D81A0020C8BC02084E
:103DA0001B20002008B50020FFF770FF10F09EF8E0
:103DB0000A4B1B7883B1FFF70BFA12F0ADFE01F04E
:103DC00095FF0AF021FE0AF033FB054B1B781BB967
:103DD000BDE8084010F0DABD08BD00BFDB1A0020C6
:103DE000E81A00200322F8B50D4C0E4D94F900702E
:103DF0002270012206462A7010B10B4B1B681E442C
:103E00002B7843B126B1084B1B689B1B002B02DAB1
:103E1000FFF7C8FFF4E7002327702B70F8BD00BF41
:103E2000E21A0020E01A0020202E002037B54D4A6B
:103E30004FF4E13113684C4823F0E06343F0007322
:103E40001360FCF7CBFB494B1B6800F0FFF84848B8
:103E500000F0F0F8FFF7AEF90FF082FAFFF717FE67
:103E6000FFF7B8F9C507044602D5424800F0E2F86A
:103E7000A00702D5404800F0DDF8610702D53F48B1
:103E800000F0D8F8220702D53D4800F0D3F8A30689
:103E900002D53C4800F0CEF8FFF79BF93A4800F015
:103EA000C9F820213048FFF7F3FD384800F0C2F888
:103EB0000A212D48FFF7ECFD00F0C8F8344800F067
:103EC000B9F800F0C3F8334800F0B4F800F0BEF8D9
:103ED0000020FCF79FFA0DF10701091A2E4800F0A7
:103EE000CDF84FF4A8612D4800F0C8F82C4C0A21F9
:103EF0001D48FFF7CDFD0AF071FA04F071FC0020B7
:103F00000AF07AFC237823B90CF044FC08B10123B1
:103F10002370244C244D2168286814F0A1FD6968A1
:103F20002060606814F09CFDA9686060A06814F0CF
:103F300097FDA0600CF012FE1C480FF009FE0BF07C
:103F4000FBF90CF063FC0EF093FEFFF79FFD0123DD
:103F50001A461946184600F013F90122144B1A703C
:103F600003B030BD040001405C100020202E002072
:103F700079E502082CC2020835C2020846C20208CE
:103F800058C2020869C202080AC302087AC20208BB
:103F900088C20208C4C20208DBC20208EAC20208E0
:103FA000D91A002028200020482000209C2800202A
:103FB000DB1A002010B5FFF7F5FE12F053FD144B8D
:103FC0001B785B0613D512F047F902F075FEFFF778
:103FD0007BFD0BF089F90FF0A3FE002108460FF0DE
:103FE000D5FB00220B4B1A700B4B0C4A1A600C4C81
:103FF0002378102B05D10B4802F02AFF08B10123CA
:10400000237003F01FF8BDE810400CF0FBBC00BFAC
:10401000A82C0020F0050020E81C002020C2020887
:10402000DB1A002026C20208014811F05DBF00BF64
:10403000DA1A002010B5044614F9011B19B1024820
:10404000FFF726FDF8E710BD5C1000200148FFF7E0
:10405000F1BF00BF2FC302080148FFF7EBBF00BF4D
:1040600028C3020810B50C46FFF7E4FF2146BDE85F
:1040700010400148FCF782BB5C10002010B50C46D4
:10408000FFF7D8FF2146BDE810400A220148FCF79F
:10409000DBBB00BF5C10002010B50C46FFF7CAFF69
:1040A0002146BDE810400A220148FCF7E0BB00BFF2
:1040B0005C10002013B50C46FFF7BCFF204614F03F
:1040C0003FF902230246009302480B46FCF7A8FC86
:1040D00002B010BD5C10002010B50C46FFF7AAFF1F
:1040E0002146BDE810400A220148FCF7D7BB00BFBB
:1040F0005C100020034A044B002814BF10461846E9
:10410000FFF798BF94C702088BC60208F8B50746A8
:104110000E4615461846069CFFF78CFF39680B487B
:10412000FFF7C8FF31680A48FFF7C4FF296809484C
:10413000FFF7C0FF24B12046BDE8F840FFF77ABF83
:104140000A210548FFF7A4FCF8BD00BFA0C1020882
:10415000A7C10208AEC102085C10002010B50446D9
:10416000322C06D93220323CFFF708F80FF0BEFEA1
:10417000F6E72046FFF702F8BDE810400FF0B6BEA4
:10418000F8B50D4617461E46002800F09E8056489A
:10419000FFF750FF58215548FFF77AFC5448FFF7C6
:1041A00049FF544813F0D3F80446002800F08B80F0
:1041B0005148FFF73FFF012C00F083804F48504BE0
:1041C000022C18BF1846FFF735FF0A214748FFF7B2
:1041D0005FFC003418BF01241DB34348FFF72AFFDA
:1041E00059214248FFF754FC4148FFF723FF454857
:1041F00013F0ADF8054600286BD03F48FFF71AFFD3
:10420000012D64D03D483E4B022D18BF1846FFF7E4
:1042100011FF002D18BF01340A213448FFF738FC84
:10422000E4B21FB33048FFF705FF5A212F48FFF7CC
:104230002FFC2F48FFF7FEFE334813F088F80546A1
:1042400000284AD02C48FFF7F5FE012D43D02B481B
:104250002B4B022D18BF1846FFF7ECFE002D18BFA0
:1042600001340A212148FFF713FCE4B216B31E48BB
:10427000FFF7E0FE45211D48FFF70AFC1C48FFF749
:10428000D9FE224813F063F8054650B31A48FFF7E9
:10429000D1FE012D23D01948194B022D18BF184605
:1042A000FFF7C8FE002D18BF01340A210F48FFF7A1
:1042B000EFFBE4B2BCB1BDE8F840002114480AF0BD
:1042C00069BA14487FE70E487DE7044684E7114841
:1042D0009DE70B489BE70F48BEE70948BCE70D4840
:1042E000DEE70748DCE7F8BD41C302085C100020A8
:1042F0004AC30208382700205AC302083DC30208F7
:1043000035C3020880270020C8270020F02600209F
:1043100066C3020838C302084138C3B2192B2DD82E
:10432000174A1068D84010F0010028D0154AD25C16
:1043300012B3154B19688B188A56A2F13001C9B215
:10434000092906D92E2A08D15A78303A092A88BF75
:1043500000230E4A0120136070472D2A01D02B2A1A
:104360000AD193F90110A1F13002D2B2092AF0D991
:104370002E2901D19A78E8E70023EAE70020704768
:10438000181B0020FA1A0020F41A00201C1B002021
:1043900008B5FFF7C1FF20B1024B1868003018BF05
:1043A000012008BD1C1B0020034B186818B10A220D
:1043B000002122F08FB870471C1B00202DE9F74F19
:1043C000524B1B7803F00703072B78D00DF01AFB34
:1043D0000CF07EFC01200CF035FA5A20FFF79CFF10
:1043E00081465820FFF798FF04465920FFF794FFB5
:1043F0008442804604D1A14502BF0124A046A146C3
:10440000434D444F95E80F0087E80F005220FFF717
:10441000BFFF2E46002876D03F4B1868002832D0C8
:104420000246934612F9015B35F0200167D0452D15
:1044300001D0652DF5D100218BF80010186821F00E
:1044400069FF82468BF800500021504614F0A4FD0D
:10445000C8B914B9B8F1000F1FD0304BB5681B783C
:1044600051465B074CBF0020284614F0F9FA294654
:10447000B86014F0B9FD30B1002302A941F8043D41
:1044800027480CF003FC14B100200CF017FEB8F123
:10449000000F02D001200CF011FEB9F1000F02D084
:1044A00002200CF00BFE0CF059FB0CF081F90CF023
:1044B00019FC03221B4B1A700CF038FB15E04F203F
:1044C000FFF766FFA0B1144B1B6873B1FFF76CFFD9
:1044D0000028FFF67BAFFFF767FFFF2805DCFFF73B
:1044E00063FF10F0FF0F3FF471AF03B0BDE8F08F32
:1044F0004F20FFF711FF00283FF468AFF5E721F0E8
:1045000009FF8246A0E7DFF820A0A2E71A200020DA
:1045100028200020382000201C1B00201B20002009
:10452000402000200C0600200000A04038B50D4BB4
:104530001868A8B10246154612F9014B34F0200163
:104540000AD0452C01D0652CF5D1002129701868BE
:1045500021F0E0FE2C7038BDBDE8384021F0DABE15
:104560000020F8E71C1B0020F8B501F075F8071EC5
:1045700047DB244E44203478FFF70AFF054610B38A
:10458000FFF7D4FF0021044614F006FD28B10024F3
:104590003470BDE8F8400DF093B91B4B002143F88F
:1045A0002740204614F020FD60B14FF07C5120469A
:1045B00014F05EFB014614F05BFB144914F058FB49
:1045C000134B18602C465320FFF7E2FE98B1114BB5
:1045D0001B680BB90124DBE7FFF7E6FE0028D6DBFA
:1045E000FFF7E2FEFF28F5DCFFF7DEFEC0B2041C99
:1045F00018BF0124CCE75320FFF78EFE0028C7D058
:10460000E8E7F8BDF91A0020CC250020DB0F49406F
:10461000480600201C1B002038B501F01DF80028BA
:104620000FDB0024074BE5B21857FFF775FE28B1E2
:10463000FFF77CFF014628460EF03CF90134042CBC
:10464000F0D138BD7BC3020838B501F005F8002869
:104650000FDB0024074BE5B21857FFF75DFE28B1CA
:10466000FFF764FF014628460EF032F90134042CAE
:10467000F0D138BD7BC3020810B51E4B1E4A1B6823
:104680001A422ED04220FFF747FE40B11B4B18685C
:1046900018B10A22002121F0D9FF194B18615320CB
:1046A000FFF73AFE18B1FFF741FF154B186454208D
:1046B000FFF732FE18B1FFF739FF114B58644A205B
:1046C000FFF72AFE68B1FFF731FF0E49044614F0E8
:1046D00081FC38B10C49204614F072FC10B10B4B30
:1046E0001C6010BDFFF7B8FCBDE810400848FFF79C
:1046F000A1BC00BF181B002002020C001C1B0020E4
:104700001C2600200AD7233C9A99993EE8250020D0
:1047100092C3020810B51D4B1B6813F4682F12D109
:104720001B4C1C48616BFFF7C5FCA16B1A48FFF7D7
:10473000C1FCE16B1948FFF7BDFCBDE810400A2140
:104740001748FBF7F7BE5320FFF722FE20B1FFF713
:10475000EDFE0F4B5863D8635020FFF719FE18B1D8
:10476000FFF7E4FE0A4B58635220FFF711FE18B121
:10477000FFF7DCFE064B98635420FFF709FE18B1E3
:10478000FFF7D4FE024BD86310BD00BF181B0020FA
:104790001C2600207FC302088FC302089DC10208A7
:1047A0005C10002010B5224C23685B0304D5214B1C
:1047B0009A7C214B9AB91A602368002B37D11F4B82
:1047C0001F48B3F90010FFF759FC25211D48FBF7DE
:1047D000B1FEBDE810400A211A48FBF7ABBE1A49EA
:1047E000096888188A56A2F13001C9B2092905D989
:1047F0002E2A0BD14278303A092A0BD80A220021FE
:10480000186021F067FE0D4B1880D5E72D2A03D0E4
:104810002B2A01D00022CEE790F90110A1F130023D
:10482000D2B2092AEAD92E29F4D18278E3E710BD61
:10483000181B0020FA1A00201C1B0020180600205C
:10484000B1C302085C100020F41A002038B500F053
:1048500003FF041E47DB2D4B2D4D1B6813F4802FE7
:1048600004D02C4B9A7C2C4BCAB91A60FFF7EEFB94
:1048700045212A48FFF70CF904F130012748FFF7DA
:1048800007F935F914102648FFF7F8FB25212348CE
:10489000FFF7FEF80A212148FFF7FAF823E0214943
:1048A000096888188A56A2F13001C9B2092905D9C8
:1048B0002E2A19D14278303A092A19D80A22002121
:1048C000186021F007FE00B225F8140014F07CF9FE
:1048D000154914F0CDF9154B53F8241014F0C8F90C
:1048E000134B43F8240038BD2D2A03D02B2A01D0C6
:1048F0000022BAE790F90110A1F13002D2B2092AE0
:10490000DCD92E29F4D18278D5E700BF181B00200E
:1049100044060020FA1A00201C1B00205C10002016
:10492000B5C30208F41A00200AD7233CEC25002066
:104930004C06002010B54520FFF7EEFC002837D1CB
:104940005020FFF7E9FC264C10B1FFF7EFFDE060C7
:104950004920FFF7E1FC28B1FFF7E8FD214914F0F9
:1049600087F920614420FFF7D7FC28B1FFF7DEFD6F
:104970001C4914F031FA6061FFF768FBE1681A48DE
:10498000FFF798FB2069174914F026FA01461748EB
:10499000FFF790FB6069134914F06AF90146144867
:1049A000FFF788FBBDE810400A211248FBF7C2BDA3
:1049B000114B1B68002BC3D0FFF7F6FC0028BFDBB0
:1049C000FFF7F2FCFF2804DCFFF7EEFC10F0FF0F0E
:1049D000B6D0FFF741FBBDE810400848FFF72ABBFF
:1049E000102800200AD7233EBDC30208C1C3020815
:1049F000C5C302085C1000201C1B0020C9C30208AC
:104A000070B55320FFF788FC0546F0B12F4B1868AE
:104A100000283AD00246164612F9014B34F0200124
:104A200030D0452C01D0652CF5D1002131701868AB
:104A300021F070FC347014F0F7FA254B00B21880A6
:104A4000B0FA80F0234B400918705020FFF764FC47
:104A50000446F0B11E4BB3F9003083B11B4B1B6809
:104A60006BB1FFF7A1FC002811DBFFF79DFCFF28CD
:104A700005DCFFF799FCC0B2041C18BF0124154BDC
:104A80001C7070BD21F046FCD5E70020D3E7002460
:104A9000F5E7002DF5D1FFF7D9FA0F48FFF7CAFA6D
:104AA0000C4B0E4A18780E4B002814BF10461846BF
:104AB000FFF7C0FA064B0B48B3F90010FFF7DEFA18
:104AC000BDE870400848FFF7B5BA00BF1C1B0020C6
:104AD0005E06002040280020DFC30208E7E002084D
:104AE000DBC30208F2C3020803C4020810B5C0B158
:104AF000FFF7ACFA0D4C0E486169FFF7DBFAA169CC
:104B00000C48FFF7D7FAE1690B48FFF7D3FA216A9F
:104B10000A48FFF7CFFABDE810400A210848FBF722
:104B200009BD20210648FBF705FDE3E71C26002010
:104B300007C40208A7C10208AEC102089AC1020850
:104B40005C1000202DE9F04100F086FD011E3EDBE7
:104B5000204B214A1B681A4204D1BDE8F0410120D4
:104B6000FFF7C4BF00251D4B5857FFF7D5FB08B30F
:104B70001B4B1B68F3B1032D1A4C22D1FFF7D6FC57
:104B80001949064614F012FA98B13146206A14F019
:104B900023F901468046206B14F06AF8134F206316
:104BA000F86814F00DF8414614F062F814F062FA57
:104BB000F86026620135042DD5D1BDE8F0410DF035
:104BC00059BEFFF7B3FC04EB85046061F2E7BDE872
:104BD000F08100BF181B0020100080030EC40208E3
:104BE0001C1B00201C2600200000A041FC250020EA
:104BF0000023024A1370024A13707047E01A002023
:104C0000F0050020012200210148FFF721B800BF74
:104C100078C10208FEF758BF70B55320FFF77CFB40
:104C2000204D28B15320FFF777FB20BB00202870D0
:104C3000FFF70CFA1C48FFF7FDF92B786BB3002443
:104C400023462A78E240D2070CD55E1CF6B21BB18F
:104C50002C211648FBF76EFC154B53F82400FFF788
:104C6000E9F933460134052CEBD1BDE870400A2147
:104C70000E48FBF75FBC0F4B1B68002BD6D0FFF72D
:104C800093FB0028D2DBFFF78FFBFF2803DCFFF745
:104C90008BFBC0B2CBE7FF20C9E70748FFF7CAF993
:104CA000E3E700BFE11A002012C402085C100020F4
:104CB00044C402081C1B002019C4020801200BF088
:104CC0009BBD00200BF098BD08B51F4B1F491B680A
:104CD000194031D05820FFF71FFB48B11C4BD3F8C7
:104CE000802093F88C104FF4803312688B4013614E
:104CF0005920FFF711FB48B1154BD3F8102193F859
:104D00001C114FF4803312688B4013615A20FFF757
:104D100003FB48B10E4BD3F8202293F82C124FF42A
:104D2000803312688B4013614520FFF7F5FA50B1CC
:104D3000BDE80840FEF7D4BE064809F02BFDBDE8EB
:104D40000840FEF7DBBE08BD181B002010008003E2
:104D5000C8BC020858C4020838B55320FFF7DCFA73
:104D6000F0B1344B1868D8B10246154612F9014B20
:104D700034F0200111D0452C01D0652CF5D1002153
:104D80002970186821F0C6FA2C702B4913F070FFB7
:104D900014F070F9294B186038BD21F0BBFAF4E724
:104DA000274B284A1B681A4240D00CF02BFE582093
:104DB000FFF7B2FA68B1244BD3F8802093F88C1037
:104DC000012312688B401361204A137823F00103FA
:104DD00013705920FFF7A0FA68B11B4BD3F81021CC
:104DE00093F81C11012312688B401361174A137842
:104DF00023F0020313705A20FFF78EFA68B1124BAA
:104E0000D3F8202293F82C12012312688B401361EF
:104E10000E4A137823F0040313704520FFF77CFA41
:104E20000028B9D0BDE83840FEF788BEBDE838405C
:104E30000CF0C2BD1C1B002000007A44EC050020D1
:104E4000181B002010008003C8BC02081B20002093
:104E50002DE9F043434D444C2F6889B02068394612
:104E600013F0FEFDD4F804906E6802903146484677
:104E700013F0F6FDD4F80880AD680390294640464B
:104E800013F0EEFD39460490E06813F0E9FDD4F824
:104E9000109005903146484613F0E2FDD4F8148096
:104EA00029460690404613F0DBFD0790FFF7CEF849
:104EB0002E48FFF7BFF82E4B2E4C1B6813F4802FA3
:104EC0001CD02D4B997C2D4B11B91960012014E099
:104ED0002B4A106842184156A1F13000C0B209288F
:104EE00005D92E2920D151783039092920D81A60C6
:104EF000FFF75AFA002829DA002020702078FFF7FF
:104F0000F9F8204B04AA009303A902A81E4BFFF74F
:104F1000FDF8002307AA009306A91C4B05A8FFF77C
:104F2000F5F809B0BDE8F0832D2904D02B2902D073
:104F300000221A60CAE792F90100A0F13001C9B25B
:104F40000929D4D92E28F3D19178CDE7FFF72CFA8F
:104F5000FF28BBDCFFF728FAC0B2003018BF0120E1
:104F6000CBE700BF602000201C06002061C40208BF
:104F7000181B002034060020FA1A00201C1B0020F9
:104F8000F41A002034CB020871C4020879C4020864
:104F900010B50C46FFF7C0F938B1054B186820B1C1
:104FA0000A22002121F096FA04B2204610BD00BF6B
:104FB0001C1B002038B55020FFF7AEF990B300213C
:104FC0005020FFF7E5FF4FF0FF3105465320FFF774
:104FD000DFFF431C022B044624D868B2002821DBE3
:104FE000FEF75AFD18B1BDE83840FEF763BDEDB2DB
:104FF0000CF008FD02212846FEF706F8621C0AD0D4
:10500000631E5C425C412846FEF774F8A04209D05A
:10501000FEF7C8FEF7E72846FEF76CF8B0FA80F412
:105020006409F0E738BD0CF0EDBC08B5FFF7BCF93A
:10503000002807DBFFF7B8F9FF2805DCFFF7B4F914
:10504000C0B208BD0020FCE7FF20FAE770B5502091
:10505000FFF79EF900283BD0FFF7A6F903040446AA
:1050600036D445B24920FFF793F968B1254B1B6848
:105070007BB1FFF7DAFF60B92846FEF70DFD40B1BE
:10508000BDE87040FEF716BD4920FFF745F900283E
:10509000F2D04D20FFF77CF978B1FFF7C6FF012869
:1050A00017D006D3022819D0BDE870401648FEF785
:1050B000C1BF0221E0B2FDF7A7FF5320FFF768F957
:1050C00030B1FFF7B2FF282D06460CD10F4B1870F8
:1050D00070BD0021E0B2FDF797FFEEE70421E0B2DA
:1050E000FDF792FFE9E7E4B220460021FDF78CFFCF
:1050F00031462046FEF712F831462846BDE870409A
:10510000FEF7A6B81C1B002081C4020868280020F6
:1051100008B50EF005FE0AF0E7F80CF04DFC002192
:1051200008460EF033FB4FF47A70FFF717F8BDE82E
:1051300008400021014809F02DBB00BF93C40208BC
:1051400038B5274B1B685B0332D5264B9B7C002B65
:105150003ED0254A1268D018D356A3F13002D2B2FD
:10516000092A06D92E2B24D14378303B092B88BF3E
:1051700000201E4A1E4B11681E4A1860116060B361
:105180000246154612F9014B34F0200122D0452C7D
:1051900001D0652CF5D100212970186821F0BAF8EA
:1051A0002C70154913F064FD13F064FF134B186065
:1051B00038BD2D2B01D02B2B0AD190F90120A2F163
:1051C0003003DBB2092BD4D92E2A01D18378CCE766
:1051D0000020CEE721F09EF8E3E70020E1E700BFE2
:1051E000181B0020FA1A0020F41A0020202E00209C
:1051F0001C1B0020E41A002000007A44DC1A002066
:1052000008B51B4B1B685B0304D40020BDE80840B5
:10521000FEF72AB8174B9A7C174B0AB91A60F4E7C5
:105220001649096888188A56A2F13001C9B20929BD
:1052300005D92E2A0AD14278303A092A0AD80A22F8
:105240000021186021F046F900B2DFE72D2A03D0D3
:105250002B2A01D00022E1E790F90110A1F13002E0
:10526000D2B2092AEBD92E29F4D18278E4E700BF23
:10527000181B0020FA1A00201C1B0020F41A002022
:10528000012208B5114B53201A700022104B1A70DE
:10529000FFF742F8A0B10F4B1B688BB1FFF784F802
:1052A000002803DABDE8084001F01ABFFFF77CF8D8
:1052B000FF2804DCFFF778F810F0FF0FF2D008BDEC
:1052C0005320FFF729F80028ECD0F8E7DB1A00207C
:1052D000691F00201C1B002000210FF01FBD0AF0D9
:1052E000D5B80BF057BA0AF093BB000010B55320A5
:1052F000FFF712F80446B8B10F4B1B68A3B1FFF7D4
:1053000053F8002815DBFFF74FF8FF2805DCFFF7FF
:105310004BF8C0B2041C18BF012484F00100C0B2D5
:10532000BDE810400AF0FEBB5320FEF7F5FF012454
:10533000F3E70024F1E700BF1C1B002008B50BF0C9
:105340001DFA30B1FEF782FEBDE808400148FEF7C5
:1053500071BE08BDA3C4020837B50024012501941D
:10536000114B1857FEF7D8FF18B10122002501ABE9
:10537000E2540134042CF3D145B101238DF80430FB
:105380008DF805308DF806308DF807309DF8073020
:105390009DF806209DF805109DF8040003B0BDE8B7
:1053A0003040FEF7EDBE00BFAEC402082DE9F0416B
:1053B0005320FEF7B1FF054600283CD0474E326827
:1053C00022B1FFF732FE051C18BF012500F044F999
:1053D00080464920FEF7A0FF18B1346814B1FFF7EA
:1053E00024FE044600263E4BF7B29857FEF794FF82
:1053F00070B1022F15D0032F17D0012F0DD03CB95B
:10540000384885F0010180F84450C9B211F0EEFC33
:105410000136042EE7D1BDE8F081002CF8D13248E6
:10542000EFE7002CF4D13148EBE7B8F1000FF2DBE5
:10543000EED12F48E5E758212E48FEF729FB2E48EC
:10544000FEF7F8FD274811F0DCFC2C4D2C4C002811
:105450000CBF28462046FEF7EDFD0A212548FEF741
:1054600017FB59212348FEF713FB2348FEF7E2FD03
:105470001D4811F0C6FC00280CBF28462046FEF748
:10548000D9FD0A211B48FEF703FB5A211948FEF7F4
:10549000FFFA1948FEF7CEFD144811F0B2FC0028BF
:1054A0000CBF28462046FEF7C5FD0A211148FEF72D
:1054B000EFFA45210F48FEF7EBFA0F48FEF7BAFD69
:1054C0000B4811F09EFC00280CBF28462046FEF732
:1054D000B1FD0A210748FEF7DBFA9CE71C1B002000
:1054E000B2C402083827002080270020C8270020E7
:1054F000F02600205C100020CEC40208B6C40208CA
:10550000C2C402082DE9F0414920FEF741FF00BB6B
:105510000026002701253F4B5FFA87F8D857FEF792
:1055200037FF10B1FEF740FF00B284B294B3B8F178
:10553000020F20D0B8F1030F21D0B8F1010F16D01F
:105540002EB93548A0F84240214611F089FE0025C9
:1055500020E0FEF729FF0028DADBFEF725FFFF2811
:1055600003DCFEF721FFC6B2D3E7FF26D1E7002E0A
:10557000EDD12A48E6E7002EE9D12948E2E700F01C
:105580006BF8051E43DBE2D126482146A0F84240D5
:1055900011F066FE0137042FBDD1002D37D0582100
:1055A0002148FEF775FA1C4B2048B3F84210FEF76D
:1055B00065FD0A211C48FEF76BFA59211A48FEF7CF
:1055C00067FA164B1948B3F84210FEF757FD0A2147
:1055D0001548FEF75DFA5A211348FEF759FA104BA9
:1055E0001248B3F84210FEF749FD0A210E48FEF7B3
:1055F0004FFA45210C48FEF74BFA0A4B0B48B3F81B
:105600004210FEF73BFD0A210748FEF741FABDE8CC
:10561000F08100BFDDC40208382700208027002069
:10562000C8270020F02600205C100020E1C40208FA
:10563000084B03281B7804D113F0200205D1D906AA
:1056400005D4C34003F001007047012070471046A5
:10565000704700BFE31A002010B55420FEF798FEF3
:1056600048B3FEF7A1FE002821DBFEF79DFEFF28D0
:105670001FDCFEF799FEC0B244B2002C15DDFEF728
:10568000E5FC4D210D48FEF703FA0D4B0A2219687F
:105690000A48FBF7D9F821460A48FEF7EFFC0A2131
:1056A0000648FEF7F5F94FF0FF34204610BD002004
:1056B000E2E7FF20E0E70446F7E700BF5C100020C8
:1056C000141B002034C502082DE9F04100245FFAC4
:1056D00084F808F1580040B2FEF75AFEA600244DA7
:1056E00000283AD0FEF722FF07464046FFF7A0FF0A
:1056F00068B3204B3846995913F0B2F9A8510134D8
:10570000032CE4D14520FEF743FE60B3FEF70EFF05
:1057100006462046FFF78CFF28B1164B3046D96865
:1057200013F09EF90646EE604620FEF731FE60B1AA
:10573000FEF7FCFE002113F057FC30B1FEF7F6FE39
:105740000D4913F049FB0D4B1860BDE8F0810C4B7F
:105750003846995913F082F9D0E7064B53F82430B4
:1057600045F82430CBE7034BDB68EB60DCE700BF98
:10577000382000202820002000007042140600205D
:105780006020002038B5054C2568054423685B1B64
:10579000002B02DAFEF706FBF8E738BD202E0020CA
:1057A000F8B50123D14C074694F900502370D04B33
:1057B000264693F900304D2B39D0542B00F0378218
:1057C000472B16D1CB4B1868042823D00ADC0028BD
:1057D0000FDB012818DC00F043FE0FB901F01AFCC2
:1057E0003570B4E15A281BD007DC1528F5D01C28E9
:1057F00013D0C14801F042FAEFE75B2814D05C28CF
:10580000F7D100F0B1FAE8E7831E5842584101F0A1
:1058100011F8E2E701F0DCF8DFE7FEF7CFFDDCE7A7
:105820000022B64B1A70D8E7B44B0F22FAE7B14BFF
:105830001B68732B00F0B68100F388804B2B00F0BF
:105840007A8140DC182B00F05E811EDC122B00F008
:10585000A08109DC002BCCDB012B40F34081112B14
:10586000C7D1FFF731FAB8E7152B00F03B8104DC14
:10587000142BBED101F07CFDAFE7162B00F0408168
:10588000172BB6D101F088FDA7E71D2B00F047814B
:105890000CDC1A2B00F03D81C0F238811B2B00F08C
:1058A0003B811C2BA5D101F039FE96E71F2B00F0A0
:1058B0003F81C0F23781202B00F037812A2B98D10D
:1058C000FFF7C4FB89E7692B00F03E811EDC532BF8
:1058D00000F05C810CDC4D2B00F03381C0F22E8196
:1058E000512B00F05081522B83D102F005F974E75F
:1058F000552B00F05181C0F24C815C2B00F04F81A0
:10590000682B7FF476AF01F003FF66E76E2B00F0A3
:1059100025810DDC6B2B00F01E81C0F219816C2BF0
:1059200000F022816D2B7FF464AF01F01FFF54E77C
:10593000702B00F01C81C0F21481712B00F01A81D1
:10594000722B7FF456AF00F0B7FB46E7E22B00F076
:10595000478157DCBE2B00F0138129DC792B00F046
:105960002A8112DC762B00F0208105DC752B7FF478
:1059700040AF00F0E1FC30E7772B00F01981782B85
:105980007FF437AFFFF79AF927E78C2B00F0F5800B
:1059900005DC7A2B7FF42DAFFFF7DEFC1DE7912BA2
:1059A00000F00C819B2B7FF424AF01F0CDFF14E7B6
:1059B000CD2B00F00C8112DCC92B00F0028105DC3C
:1059C000C82B7FF416AFFEF7CFFD06E7CB2B00F018
:1059D000FB80CC2B7FF40DAFFEF79CFEFDE6D32BB6
:1059E00000F0F88005DCCE2B7FF403AF00F028FA3E
:1059F000F3E6DC2B00F0F180DD2B7FF4FAAEFEF74E
:105A000025FFEAE6B3F5FB7F00F0FC8035DCB3F55B
:105A1000C87F00F0EE8018DC40F22D12934200F0B7
:105A2000E280B3F5977F06DAB3F5967F7FF4E1AEB7
:105A300000F0F6FCD1E600F0D98040F22F1293423C
:105A40007FF4D7AE01F0DAFFC7E6B3F5D67F00F0FA
:105A5000D38006DCB3F5CD7F7FF4CBAEFFF7DAF869
:105A6000BBE6B3F5FA7F00F0CA8040F2F51293422C
:105A70007FF4BFAEFFF735FCAFE640F28A329342C7
:105A800000F0CC8011DCB3F5FC7F00F0C180C0F2E7
:105A9000BC80B3F5037F00F0BE8040F23922934210
:105AA0007FF4A7AEFFF782FC97E640F2E53293421F
:105AB00000F0B78006DCB3F5687F7FF49AAE01F0A2
:105AC000A3FD8AE640F2E732934200F0AD8040F257
:105AD000E93293427FF48DAE01F02EFC7DE600F0BA
